:100000000C942A000C9479010C94A2010C94CB015D
:100010000C9447000C9447000C9447000C94470044
:100020000C9447000C9447000C9472000C94490007
:100030000C9447000C9447000C9447000C94470024
:100040000C9447000C9447000C9447000C94470014
:100050000C94470011241FBECFE5D8E0DEBFCDBF12
:1000600010E0A0E6B0E0ECE6F9E002C005900D92E9
:10007000A836B107D9F710E0A8E6B0E001C01D929C
:10008000A737B107E1F70E94AD040C94B4040C94B7
:1000900000001F920F920FB60F9211242F933F93DF
:1000A0004F935F936F937F938F939F93AF93BF9380
:1000B000EF93FF93E0916A00F0916B00309709F0A5
:1000C0000995FF91EF91BF91AF919F918F917F9192
:1000D0006F915F914F913F912F910F900FBE0F90B5
:1000E0001F9018951F920F920FB60F9211242F9305
:1000F0003F934F935F936F937F938F939F93AF93B0
:10010000BF93EF93FF93E0916800F09169003097FF
:1001100009F00995FF91EF91BF91AF919F918F9158
:100120007F916F915F914F913F912F910F900FBEF3
:100130000F901F901895FC018081882381F48181A4
:1001400082BF8581882319F489B7816004C081301A
:1001500019F489B78E7F89BF83B7806819C0813051
:10016000F9F4818182BF83818CBF89B7826089BFA6
:100170008581882319F489B7826004C0813019F41D
:1001800089B78D7F89BF83B7806883BF83B7886055
:1001900083BF83B7887F9281892B83BF81E00895D5
:1001A000823011F080E00895818182BF84818CBF0C
:1001B000BB9A83B7806483BF83B7886083BF83B7EC
:1001C000806283BF83B7887F9281892B83BF81E060
:1001D000089590936B0080936A000895909369004E
:1001E00080936800089512BE13BE89B78E7F89BFC1
:1001F00089B78D7F89BF81E00895882349F08130D8
:1002000011F080E008958FB780688FBF81E0089576
:100210008FB78F778FBF81E00895FC018081813097
:1002200039F1813020F0823009F053C041C08BB7E2
:1002300080648BBF8181823061F0833020F4813013
:1002400009F047C00CC0833039F0843009F041C058
:100250000CC085B7836027C085B7826024C085B78E
:100260008D7F85BF85B78E7F1EC085B781601BC01F
:100270008BB780688BBF8181823051F0833018F456
:10028000813039F50BC0833031F0843011F50DC069
:1002900085B78C6008C085B7886005C085B7877F43
:1002A00085BF85B78B7F85BF12C085B78460FBCFC4
:1002B0008BB780628BBF8181823019F0833049F423
:1002C00003C084B7806402C084B78F7B84BF81E0A1
:1002D000089580E00895833010F080E00895E82FBD
:1002E000F0E0EE0FFF1FE459FF4F7183608381E060
:1002F00008951F920F920FB60F9211242F933F93E0
:100300004F935F936F937F938F939F93AF93BF931D
:10031000EF93FF93E0916C00F0916D00309709F03E
:100320000995FF91EF91BF91AF919F918F917F912F
:100330006F915F914F913F912F910F900FBE0F9052
:100340001F9018951F920F920FB60F9211242F93A2
:100350003F934F935F936F937F938F939F93AF934D
:10036000BF93EF93FF93E0916E00F0916F00309791
:1003700009F00995FF91EF91BF91AF919F918F91F6
:100380007F916F915F914F913F912F910F900FBE91
:100390000F901F9018951F920F920FB60F92112475
:1003A0002F933F934F935F936F937F938F939F937D
:1003B000AF93BF93EF93FF93E0917000F0917100C2
:1003C000309709F00995FF91EF91BF91AF919F91FF
:1003D0008F917F916F915F914F913F912F910F90EE
:1003E0000FBE0F901F901895813049F0813020F09A
:1003F000823051F080E008958BB78F7B02C08BB7BD
:100400008F778BBF81E008958BB78F7D8BBF81E0A5
:100410000895823449F1833420F4813409F077C09F
:1004200007C0833409F43CC0843409F070C053C061
:10043000442361F42AB381E090E002C0880F991F41
:100440006A95E2F7809582238ABB5FC0413009F04C
:100450005EC02AB381E090E002C0880F991F6A95C0
:10046000E2F7282B2ABB51C0442361F427B381E073
:1004700090E002C0880F991F6A95E2F78095822369
:1004800087BB43C0413009F042C027B381E090E010
:1004900002C0880F991F6A95E2F7282B27BB35C049
:1004A000442361F424B381E090E002C0880F991FD7
:1004B0006A95E2F78095822384BB27C0413039F5E5
:1004C00024B381E090E002C0880F991F6A95E2F79B
:1004D000282B24BB1AC0442361F421B381E090E0AF
:1004E00002C0880F991F6A95E2F78095822381BB2D
:1004F0000CC0413061F421B381E090E002C0880F6C
:10050000991F6A95E2F7282B21BB81E0089580E0CE
:100510000895823449F1833420F4813409F077C09E
:1005200007C0833409F43CC0843409F070C053C060
:10053000413059F42BB381E090E002C0880F991F3D
:100540006A95E2F7282B2BBB60C0442309F05FC0FB
:100550002BB381E090E002C0880F991F6A95E2F703
:10056000809582238BBB51C0413059F428B381E080
:1005700090E002C0880F991F6A95E2F7282B28BBEC
:1005800044C0442309F043C028B381E090E002C096
:10059000880F991F6A95E2F78095822388BB35C042
:1005A000413059F425B381E090E002C0880F991FD3
:1005B0006A95E2F7282B25BB28C0442341F525B3D3
:1005C00081E090E002C0880F991F6A95E2F780955C
:1005D000822385BB1AC0413059F422B381E090E0F8
:1005E00002C0880F991F6A95E2F7282B22BB0DC025
:1005F000442369F422B381E090E002C0880F991F80
:100600006A95E2F78095822382BB81E0089580E0BD
:100610000895FA01823469F0833418F4813429F49E
:1006200006C0833441F08434D1F080E0089529B3CA
:1006300003C026B301C023B381E090E0062E02C0C0
:10064000880F991F0A94E2F730E08223932302C0B7
:10065000959587956A95E2F7808381E0089520B3A8
:1006600081E090E0062E02C0880F991F0A94E2F7FD
:1006700030E08223932302C0959587956A95E2F72F
:10068000808381E008958234B1F0833418F481349A
:1006900029F406C08334D1F0843421F180E0089538
:1006A0002BB381E090E002C0880F991F6A95E2F7B2
:1006B00028272BBB15C028B381E090E002C0880F2B
:1006C000991F6A95E2F7282728BB0AC025B381E065
:1006D00090E002C0880F991F6A95E2F7282725BB92
:1006E00081E0089522B381E090E002C0880F991F55
:1006F0006A95E2F7282722BB81E008958091740073
:100700008F5F80937400843039F4809173008F5F21
:10071000809373001092740008951F93182F82E63F
:1007200090E00E949B0080917300811749F40E9421
:10073000F300109274001092730081E01F910895ED
:10074000FFCF82E462E00E94940481E0089582E495
:1007500060E00E94940481E0089581E462E00E94D8
:10076000940481E0089581E460E00E94940481E0B3
:10077000089582E462E00E94980481E0089582E492
:1007800060E00E94980481E0089581E462E00E94A4
:10079000980481E0089581E460E00E94980481E07B
:1007A000089510C082E461E00E94910481E461E058
:1007B0000E94910481E00E948D03809175008F5FFB
:1007C0008093750080917500853060F382E461E06C
:1007D0000E94940481E461E00E94940410927500E8
:1007E00081E00895809172008130E1F0813028F03D
:1007F0008230F1F08330F1F534C081E462E00E9490
:10080000980482E460E00E94980485E00E948D03D1
:1008100081E462E00E94940482E460E00E94940417
:1008200081E003C00E94D10382E08093720024C063
:1008300081E460E00E94980482E462E00E949804EF
:1008400085E00E948D0381E460E00E94940482E4CC
:1008500062E00E94940483E080937200109276001C
:100860000BC00E94D103809172008130E9F2109296
:10087000720002C00E94D10381E0089580E00E94CE
:10088000F401909176009F5F909376009130D1F4BF
:1008900080917200813049F0813018F0833071F41A
:1008A00009C085E08093730007C0109275008093A3
:1008B000720004C0109275009093720080E690E080
:1008C0000E940D01089581E00E94FD008EE793E0F3
:1008D0000E94E90084E462E00E94A30480E690E0C4
:1008E0000E940D0180E06EE374E00E946B0181E4E0
:1008F00060E00E949C0481E461E00E949C0481E429
:1009000062E00E949C0482E460E00E949C0482E415
:1009100061E00E949C0482E462E00E949C0481E009
:1009200008950E944303089540E00E9489020895BB
:1009300041E00E948902089541E00E940902089561
:100940000E940903089540E00E94090208950E9450
:10095000F203FDCF0E94630408950E94AA040E943E
:0C096000A70480E090E00895F894FFCF19
:08096C000002000C0500000070
:00000001FF
