:100000000C942A000C9417030C944A030C947D035F
:100010000C9447000C9447000C9447000C94470044
:100020000C9447000C9447000C947C000C944900FD
:100030000C9447000C9447000C9447000C94470024
:100040000C9447000C9447000C9447000C94470014
:100050000C94470011241FBECFE5D8E0DEBFCDBF12
:1000600010E0A0E6B0E0E8EAF2E102C005900D92EF
:10007000A836B107D9F710E0A8E6B0E001C01D929C
:10008000A737B107E1F70E9445090C9452090C9477
:1000900000001F920F920FB60F9211242F933F93DF
:1000A0004F935F936F937F938F939F93AF93BF9380
:1000B000EF93FF93DF93CF93CDB7DEB780916800C6
:1000C00090916900009729F0E0916800F091690033
:1000D0000995CF91DF91FF91EF91BF91AF919F91E2
:1000E0008F917F916F915F914F913F912F910F90E1
:1000F0000FBE0F901F9018951F920F920FB60F9280
:1001000011242F933F934F935F936F937F938F931C
:100110009F93AF93BF93EF93FF93DF93CF93CDB7AD
:10012000DEB780916A0090916B00009729F0E09112
:100130006A00F0916B000995CF91DF91FF91EF91EB
:10014000BF91AF919F918F917F916F915F914F91EF
:100150003F912F910F900FBE0F901F901895DF9336
:10016000CF9300D00F92CDB7DEB79A838983E98110
:10017000FA818081882399F5A2E5B0E0E981FA81CE
:1001800081818C93E981FA818581882341F4A9E5F5
:10019000B0E0E9E5F0E0808181608C930CC0E981FA
:1001A000FA818581813039F4A9E5B0E0E9E5F0E034
:1001B00080818E7F8C93A3E5B0E0E3E5F0E0808161
:1001C00080688C93A3E5B0E0E3E5F0E08081982FB0
:1001D000987FE981FA818281892B8C9389C0E9819A
:1001E000FA818081813009F047C0A2E5B0E0E98161
:1001F000FA8181818C93ACE5B0E0E981FA81838159
:100200008C93A9E5B0E0E9E5F0E0808182608C9311
:10021000E981FA818581882341F4A9E5B0E0E9E527
:10022000F0E0808182608C930CC0E981FA81858145
:10023000813039F4A9E5B0E0E9E5F0E080818D7F17
:100240008C93A3E5B0E0E3E5F0E0808180688C93D7
:10025000A3E5B0E0E3E5F0E0808188608C93A3E55E
:10026000B0E0E3E5F0E08081982F987FE981FA81A2
:100270008281892B8C933CC0E981FA818081823014
:10028000A9F5A2E5B0E0E981FA8181818C93ACE522
:10029000B0E0E981FA8184818C93A7E3B0E0E7E3E1
:1002A000F0E0808188608C93A3E5B0E0E3E5F0E0C6
:1002B000808180648C93A3E5B0E0E3E5F0E0808189
:1002C00088608C93A3E5B0E0E3E5F0E08081806294
:1002D0008C93A3E5B0E0E3E5F0E08081982F987F70
:1002E000E981FA818281892B8C9302C01B8202C032
:1002F00081E08B838B810F900F900F90CF91DF91D6
:100300000895DF93CF9300D0CDB7DEB79A8389836A
:1003100089819A8190936900809368000F900F9073
:10032000CF91DF910895DF93CF9300D0CDB7DEB7A3
:100330009A83898389819A8190936B0080936A0064
:100340000F900F90CF91DF910895DF93CF93CDB7AA
:10035000DEB7E2E5F0E01082E3E5F0E01082A9E527
:10036000B0E0E9E5F0E080818E7F8C93A9E5B0E014
:10037000E9E5F0E080818D7F8C9381E0CF91DF9182
:100380000895DF93CF9300D000D0CDB7DEB7898337
:100390008981282F30E03C832B838B819C810097BF
:1003A00069F02B813C812130310581F4AFE5B0E06B
:1003B000EFE5F0E0808180688C930AC0AFE5B0E0A3
:1003C000EFE5F0E080818F778C9302C01A8202C043
:1003D00031E03A838A810F900F900F900F90CF9168
:1003E000DF910895DF93CF93CDB7DEB72B970FB68C
:1003F000F894DEBF0FBECDBF9A838983E981FA816D
:100400008081282F30E03B872A878A859B85813031
:10041000910509F45DC02A853B852230310509F438
:10042000A9C08A859B85009709F0CFC0ABE5B0E0F5
:10043000EBE5F0E0808180648C93E981FA81818131
:10044000282F30E039872887888599858230910563
:10045000B1F0288539852330310534F488859985B4
:1004600081309105E1F032C028853985233031058E
:1004700071F0888599858430910501F127C0A5E543
:10048000B0E0E5E5F0E0808183608C93A0C0A5E555
:10049000B0E0E5E5F0E0808182608C9398C0A5E54E
:1004A000B0E0E5E5F0E080818D7F8C93A5E5B0E0DC
:1004B000E5E5F0E080818E7F8C9389C0A5E5B0E012
:1004C000E5E5F0E0808181608C9381C01F8281C06E
:1004D000ABE5B0E0EBE5F0E0808180688C93E981EA
:1004E000FA818181282F30E03E832D838D819E818A
:1004F00082309105B1F02D813E812330310534F4F5
:100500008D819E8181309105E1F032C02D813E8147
:100510002330310571F08D819E818430910501F188
:1005200027C0A5E5B0E0E5E5F0E080818C608C9324
:100530004EC0A5E5B0E0E5E5F0E0808188608C93F1
:1005400046C0A5E5B0E0E5E5F0E08081877F8C93CB
:10055000A5E5B0E0E5E5F0E080818B7F8C9337C0C6
:10056000A5E5B0E0E5E5F0E0808184608C932FC0E4
:100570001F822FC0ABE5B0E0EBE5F0E08081806248
:100580008C93E981FA818181282F30E03C832B8391
:100590008B819C818230910531F02B813C8123300D
:1005A000310549F010C0A4E5B0E0E4E5F0E0808159
:1005B00080648C930CC0A4E5B0E0E4E5F0E08081B9
:1005C0008F7B8C9304C01F8204C01F8202C031E065
:1005D0003F838F812B960FB6F894DEBF0FBECDBF41
:1005E000CF91DF910895DF93CF9300D000D0CDB7A6
:1005F000DEB789837B836A838981833078F489813C
:10060000882F90E02A813B81880F991FFC01E459D3
:10061000FF4F3183208381E08C8301C01C828C8159
:100620000F900F900F900F90CF91DF9108951F9230
:100630000F920FB60F9211242F933F934F935F9316
:100640006F937F938F939F93AF93BF93EF93FF939A
:10065000DF93CF93CDB7DEB780916C0090916D00A2
:10066000009729F0E0916C00F0916D000995CF9111
:10067000DF91FF91EF91BF91AF919F918F917F910A
:100680006F915F914F913F912F910F900FBE0F90FF
:100690001F9018951F920F920FB60F9211242F934F
:1006A0003F934F935F936F937F938F939F93AF93FA
:1006B000BF93EF93FF93DF93CF93CDB7DEB78091D6
:1006C0006E0090916F00009729F0E0916E00F0911C
:1006D0006F000995CF91DF91FF91EF91BF91AF919D
:1006E0009F918F917F916F915F914F913F912F914A
:1006F0000F900FBE0F901F9018951F920F920FB67C
:100700000F9211242F933F934F935F936F937F9397
:100710008F939F93AF93BF93EF93FF93DF93CF9309
:10072000CDB7DEB78091700090917100009729F0ED
:10073000E0917000F09171000995CF91DF91FF91E8
:10074000EF91BF91AF919F918F917F916F915F9149
:100750004F913F912F910F900FBE0F901F901895C2
:10076000DF93CF9300D000D0CDB7DEB789838981E6
:10077000282F30E03C832B838B819C818130910535
:1007800089F02B813C8122303105A1F08B819C8145
:100790000097C1F4ABE5B0E0EBE5F0E080818F7B42
:1007A0008C9312C0ABE5B0E0EBE5F0E080818F7791
:1007B0008C930AC0ABE5B0E0EBE5F0E080818F7D83
:1007C0008C9302C01A8202C091E09A838A810F90B2
:1007D0000F900F900F90CF91DF910895DF93CF93FB
:1007E00000D000D000D0CDB7DEB789836A834B83B9
:1007F0008981282F30E03E832D838D819E81823434
:10080000910509F449C02D813E812334310534F42A
:100810008D819E818134910571F0D1C02D813E8101
:100820002334310509F469C08D819E81843491059A
:1008300009F494C0C4C08B818823A9F4AAE3B0E072
:10084000EAE3F0E08081482F8A81282F30E081E0C0
:1008500090E0022E02C0880F991F0A94E2F780955B
:1008600084238C93AEC08B818130A1F4AAE3B0E0E5
:10087000EAE3F0E08081482F8A81282F30E081E090
:1008800090E0022E02C0880F991F0A94E2F7842B91
:100890008C9397C01C8297C08B818823A9F4A7E30F
:1008A000B0E0E7E3F0E08081482F8A81282F30E034
:1008B00081E090E0022E02C0880F991F0A94E2F7AF
:1008C000809584238C937DC08B818130A1F4A7E334
:1008D000B0E0E7E3F0E08081482F8A81282F30E004
:1008E00081E090E0022E02C0880F991F0A94E2F77F
:1008F000842B8C9366C01C8266C08B818823A9F4EC
:10090000A4E3B0E0E4E3F0E08081482F8A81282F5F
:1009100030E081E090E0022E02C0880F991F0A9417
:10092000E2F7809584238C934CC08B818130A1F4B5
:10093000A4E3B0E0E4E3F0E08081482F8A81282F2F
:1009400030E081E090E0022E02C0880F991F0A94E7
:10095000E2F7842B8C9335C01C8235C08B818823B1
:10096000A9F4A1E3B0E0E1E3F0E08081482F8A81BF
:10097000282F30E081E090E0022E02C0880F991FFE
:100980000A94E2F7809584238C931BC08B8181307D
:10099000A1F4A1E3B0E0E1E3F0E08081482F8A8197
:1009A000282F30E081E090E0022E02C0880F991FCE
:1009B0000A94E2F7842B8C9304C01C8204C01C822E
:1009C00002C091E09C838C8126960FB6F894DEBF1E
:1009D0000FBECDBFCF91DF910895DF93CF9300D0AD
:1009E00000D000D0CDB7DEB789836A834B8389817D
:1009F000282F30E03E832D838D819E8182349105A6
:100A000009F449C02D813E812334310534F48D81B0
:100A10009E818134910571F0D1C02D813E812334B6
:100A2000310509F469C08D819E818434910509F4F2
:100A300094C0C4C08B818130A1F4ABE3B0E0EBE3A0
:100A4000F0E08081482F8A81282F30E081E090E01B
:100A5000022E02C0880F991F0A94E2F7842B8C9310
:100A6000AFC08B818823A9F4ABE3B0E0EBE3F0E007
:100A70008081482F8A81282F30E081E090E0022E8B
:100A800002C0880F991F0A94E2F7809584238C9303
:100A900097C01C8297C08B818130A1F4A8E3B0E09D
:100AA000E8E3F0E08081482F8A81282F30E081E060
:100AB00090E0022E02C0880F991F0A94E2F7842B5F
:100AC0008C937EC08B818823A9F4A8E3B0E0E8E38F
:100AD000F0E08081482F8A81282F30E081E090E08B
:100AE000022E02C0880F991F0A94E2F78095842392
:100AF0008C9366C01C8266C08B818130A1F4A5E313
:100B0000B0E0E5E3F0E08081482F8A81282F30E0D3
:100B100081E090E0022E02C0880F991F0A94E2F74C
:100B2000842B8C934DC08B818823A9F4A5E3B0E07E
:100B3000E5E3F0E08081482F8A81282F30E081E0D2
:100B400090E0022E02C0880F991F0A94E2F7809568
:100B500084238C9335C01C8235C08B818130A1F4F5
:100B6000A2E3B0E0E2E3F0E08081482F8A81282F01
:100B700030E081E090E0022E02C0880F991F0A94B5
:100B8000E2F7842B8C931CC08B818823A9F4A2E309
:100B9000B0E0E2E3F0E08081482F8A81282F30E046
:100BA00081E090E0022E02C0880F991F0A94E2F7BC
:100BB000809584238C9304C01C8204C01C8202C0D4
:100BC00091E09C838C8126960FB6F894DEBF0FBE11
:100BD000CDBFCF91DF910895DF93CF93CDB7DEB72F
:100BE00027970FB6F894DEBF0FBECDBF89836A8307
:100BF0005C834B838981282F30E03F832E834E8195
:100C00005F8142345105C1F18E819F81833491050A
:100C100034F42E813F812134310571F08DC04E8135
:100C20005F814334510509F447C08E819F8184342C
:100C3000910509F461C080C0E9E3F0E08081482FAC
:100C400050E08A81282F30E081E090E002C0880FD8
:100C5000991F2A95E2F79A01282339238A81882F40
:100C600090E0A90102C0559547958A95E2F7CA011F
:100C7000EB81FC81808362C0E6E3F0E08081482F55
:100C800050E08A81282F30E081E090E002C0880F98
:100C9000991F2A95E2F79A01282339238A81882F00
:100CA00090E0A90102C0559547958A95E2F7CA01DF
:100CB000EB81FC81808342C0E3E3F0E08081482F38
:100CC00050E08A81282F30E081E090E002C0880F58
:100CD000991F2A95E2F79A01282339238A81882FC0
:100CE00090E0A90102C0559547958A95E2F7CA019F
:100CF000EB81FC81808322C0E0E3F0E08081482F1B
:100D000050E08A81282F30E081E090E002C0880F17
:100D1000991F2A95E2F79A01282339238A81882F7F
:100D200090E0A90102C0559547958A95E2F7CA015E
:100D3000EB81FC81808302C01D8202C051E05D8393
:100D40008D8127960FB6F894DEBF0FBECDBFCF9131
:100D5000DF910895DF93CF9300D000D00F92CDB7ED
:100D6000DEB789836A838981282F30E03D832C8315
:100D70008C819D818234910551F12C813D812334F8
:100D8000310534F48C819D818134910561F05BC023
:100D90002C813D812334310571F18C819D81843416
:100DA0009105E9F150C0ABE3B0E0EBE3F0E0808106
:100DB000482F8A81282F30E081E090E0022E02C087
:100DC000880F991F0A94E2F784278C933EC0A8E30A
:100DD000B0E0E8E3F0E08081482F8A81282F30E0FE
:100DE00081E090E0022E02C0880F991F0A94E2F77A
:100DF00084278C932AC0A5E3B0E0E5E3F0E080818E
:100E0000482F8A81282F30E081E090E0022E02C036
:100E1000880F991F0A94E2F784278C9316C0A2E3E7
:100E2000B0E0E2E3F0E08081482F8A81282F30E0B3
:100E300081E090E0022E02C0880F991F0A94E2F729
:100E400084278C9302C01B8202C091E09B838B811C
:100E50000F900F900F900F900F90CF91DF9108950A
:100E6000DF93CF93CDB7DEB781E00E94C10188E95F
:100E700098E00E94810184E462E00E940C0980E60F
:100E800090E00E94F20125EC37E080E0B9010E9479
:100E9000F30281E460E00E94C90881E461E00E94FD
:100EA000C90881E462E00E94C90882E460E00E940F
:100EB000C90882E461E00E94C90882E462E00E94FD
:100EC000C90881E0CF91DF910895DF93CF9300D0DF
:100ED000CDB7DEB780917200282F30E03A832983A6
:100EE00089819A818130910521F129813A812230CD
:100EF00031052CF489819A81009761F03EC02981E7
:100F00003A8122303105D9F089819A818330910567
:100F100039F133C00E941D080E94290885E00E9413
:100F2000AF080E9474080E94800881E080937200DC
:100F300026C00E94350882E08093720020C00E9483
:100F400011080E945C0885E00E94AF080E946808B2
:100F50000E948C0883E080937200109276000FC08C
:100F60000E94350880917200813021F482E08093E4
:100F7000720005C01092720002C00E94350881E024
:100F80000F900F90CF91DF910895DF93CF9300D012
:100F9000CDB7DEB780E00E94B003809176008F5F0E
:100FA00080937600809176008130B1F58091720057
:100FB000282F30E03A83298389819A8181309105F5
:100FC000E1F029813A81223031052CF489819A811E
:100FD000009761F01DC029813A8122303105C1F0AE
:100FE00089819A818330910571F012C085E08093E8
:100FF000730081E0809372000BC01092750081E055
:101000008093720005C01092750081E08093720099
:1010100080E690E00E94F2010F900F90CF91DF9157
:101020000895DF93CF93CDB7DEB781E460E00E94EF
:10103000DA0881E0CF91DF910895DF93CF93CDB7A8
:10104000DEB781E462E00E94DA0881E0CF91DF91AF
:101050000895DF93CF93CDB7DEB782E460E00E94BE
:10106000DA0881E0CF91DF910895DF93CF93CDB778
:10107000DEB710C082E461E00E94FC0881E461E018
:101080000E94FC0881E00E94AF08809175008F5F8C
:101090008093750080917500853060F382E461E093
:1010A0000E94EB0881E461E00E94EB081092750059
:1010B00081E0CF91DF910895DF93CF93CDB7DEB775
:1010C00082E462E00E94DA0881E0CF91DF91089526
:1010D000DF93CF93CDB7DEB781E460E00E94EB08E9
:1010E00081E0CF91DF910895DF93CF93CDB7DEB745
:1010F00081E462E00E94EB0881E0CF91DF910895E6
:10110000DF93CF93CDB7DEB782E460E00E94EB08B7
:1011100081E0CF91DF910895DF93CF93CDB7DEB714
:1011200082E462E00E94EB0881E0CF91DF910895B4
:10113000DF93CF93CDB7DEB7809174008F5F80933C
:10114000740080917400843039F4809173008F5F53
:101150008093730010927400CF91DF910895DF9314
:10116000CF930F92CDB7DEB7898382E690E00E94DD
:10117000AF009091730089819817D9F70E94A5015B
:10118000109274001092730081E00F90CF91DF9164
:101190000895DF93CF9300D0CDB7DEB789836A83FC
:1011A00089816A8141E00E94EE030F900F90CF91F8
:1011B000DF910895DF93CF9300D0CDB7DEB7898359
:1011C0006A8389816A8141E00E94ED040F900F904B
:1011D000CF91DF910895DF93CF9300D0CDB7DEB7E5
:1011E00089836A8389816A8140E00E94ED040F90BF
:1011F0000F90CF91DF910895DF93CF9300D0CDB7BB
:10120000DEB789836A8389816A810E94AA060F906A
:101210000F90CF91DF910895DF93CF9300D0CDB79A
:10122000DEB789836A8389816A8140E00E94EE0388
:101230000F900F90CF91DF910895DF93CF9300D05F
:1012400000D0CDB7DEB789836A835C834B832B8163
:101250003C8189816A81A9010E94EC050F900F9061
:101260000F900F90CF91DF910895DF93CF93CDB77B
:10127000DEB70E943007CF91DF910895DF93CF93BF
:10128000CDB7DEB70E946507FDCFDF93CF93CDB713
:10129000DEB70E9435090E943E0980E090E0CF91C0
:0812A000DF910895F894FFCFDF
:0812A8000002000C050000002B
:00000001FF
